:100000000C94CD010C9481030C94EA010C94EA0148
:100010000C94EA010C94EA010C94EA010C94EA01B4
:100020000C94EA010C94EA010C94EA010C94EA01A4
:100030000C94EA010C94EA010C94EA010C94EA0194
:100040000C94EA010C94EA010C94EA010C94EA0184
:100050000C94EA0109022200010100803209040027
:1000600000010300000009210101000122690007CD
:1000700005810308000A1201100100000008401C5D
:100080002505010101020001120347004C00430055
:10009000440032005500530042003C0377007700D3
:1000A00077002E0068006100720062006100750038
:1000B0006D002E006F00720067002F007400690051
:1000C0006C006C002F0067006C006300640032005D
:1000D0007500730062000403090444726976657256
:1000E0003A20204B5330313038205625642E2530AD
:1000F000327820002A2A2A20474C43443255534262
:10010000202A2A2A0011470600FF0901A101150033
:1001100026FF007508850195250900B202018502B8
:1001200095010900B20201850395010900B202019F
:10013000850495010900B20201850895070900B2FE
:1001400002018509950B0900B20201850A95130980
:1001500000B20201850B95230900B20201850C95BE
:10016000430900B20201850D95830900B20201C066
:10017000014B533031303800000000000000000017
:10018000000000000000000000000000000000006F
:100190000080004000120B3E414141414242424238
:1001A0003C0006FFFFFFFFFFFF0000000000000013
:1001B0005F00000007000700147F147F14242A7FCB
:1001C0002A122313086462364955225000050300A1
:1001D00000001C2241000041221C00082A1C2A08A1
:1001E00008083E0808005030000008080808080009
:1001F0006060000020100804023E5149453E004264
:100200007F400042615149462141454B311814124B
:100210007F1027454545393C4A4949300171090558
:10022000033649494936064949291E003636000039
:10023000005636000000081422411414141414410E
:10024000221408000201510906324979413E7E110B
:1002500011117E7F494949363E414141227F41414A
:10026000221C7F494949417F090901013E41415111
:10027000327F0808087F00417F41002040413F0154
:100280007F081422417F404040407F0204027F7F6C
:100290000408107F3E4141413E7F090909063E4165
:1002A00051215E7F09192946464949493101017F9B
:1002B00001013F4040403F1F2040201F7F20182069
:1002C0007F631408146303047804036151494543B0
:1002D00000007F4141020408102041417F000004DA
:1002E000020102044040404040000102040020544A
:1002F0005454787F48444438384444442038444473
:10030000487F3854545418087E0901020814545484
:100310003C7F0804047800447D40002040443D00B8
:10032000007F10284400417F40007C041804787C42
:100330000804047838444444387C1414140808141D
:1003400014187C7C080404084854545420043F4486
:1003500040203C4040207C1C2040201C3C40304041
:100360003C44281028440C5050503C4464544C44A5
:10037000000836410000007F0000004136080008F8
:10038000082A1C08081C2A08083031323334353654
:100390003738394142434445460011241FBECFE55A
:1003A000D4E0DEBFCDBF10E0A0E6B0E0E2E5F4E2CD
:1003B00002C005900D92AC36B107D9F711E0ACE65A
:1003C000B0E001C01D92AF39B107E1F70E94901073
:1003D0000C9427120C940000CF93C62F2091690132
:1003E00024FF19C030916A0128E8232720936A016D
:1003F0002C2FFC01ABE6B1E081918D9321501216B8
:10040000DCF36C2F8BE691E00E947D03CC5FC09300
:100410006901CF9108952AE520936901E9CFCF932F
:10042000DF9360917A01635067FD14C020917701DA
:100430008CE090E0821B9109EC01C258DE4F809164
:1004400076018D3209F457C080916C0087FD9AC007
:1004500010927A018091610084FF40C06091600039
:100460006F3F09F43BC0693008F46DC06850609379
:10047000600090915E0188E8892780935E0168E0C2
:1004800080916C0087FD1CC020917801309179012A
:1004900086FF6FC0AFE5B1E0F901962F84918D938F
:1004A00031969150D9F78FEF860F90E00196280F83
:1004B000391F3093790120937801C4E0C60F4EC0F4
:1004C0008FE591E00E94B905682F893008F4B2C029
:1004D0008FEF80936000CEE1C093610094E180B320
:1004E000847431F49150D9F710927B011092750108
:1004F000DF91CF910895683009F0AACF83EC809303
:100500005E018AE58093610010926C00888180769C
:1005100009F043C09A81109267018981811149C015
:100520001092680127E631E082E030937901209350
:1005300078019F81911104C09E81981708F4892F3A
:100540008093600085CF1092600090915E0188E8F2
:10055000892780935E01611193CFC4E08FE591E01C
:100560000E947D03CC3009F4B7CF8FEF80936000F9
:10057000B3CFD901EFE5F1E0962F8D9181939150A2
:10058000E1F791CFCE010E9457068F3F11F18823EA
:1005900009F45ECF109260005BCFCE010E946E0521
:1005A0008F3F39F6988197FD18C090E890936C00C2
:1005B000C7CF8530A1F0863069F18830E1F089300D
:1005C000A1F08A3019F18B30D1F027E631E080E0DC
:1005D000ACCF8EE1809361003BCF8E81E6CF9093CC
:1005E0007B0127E631E080E0A0CF90937D0127E6F4
:1005F00031E080E09ACF2DE731E081E096CF8BE4C7
:1006000080936A0127E631E080E08FCF27E631E072
:1006100081E08BCF8B81813091F1823041F1833049
:10062000E1F0813291F0823241F080E090E49093E9
:100630006C007FCFC4E0C80F91CF87E091E090932A
:1006400079018093780189E6F1CF86E690E0909376
:1006500079018093780189E0E9CF911118C086ED86
:1006600090E0909379018093780184E0DFCF84E576
:1006700090E0909379018093780182E2D7CF86E76A
:1006800090E0909379018093780182E1CFCF91300F
:1006900051F0923051F688E890E090937901809380
:1006A000780182E1C3CF8AE990E090937901809349
:1006B00078018CE3BBCF85B7836085BF8BB780643F
:1006C0008BBFE9E6F1E08BE481838AE580830895BE
:1006D000A82FB92F80E090E041E050EA609530E02B
:1006E00009C02D9182279795879510F0842795272B
:1006F000305EC8F36F5FA8F30895EADF8D939D9392
:100700000895CF93CFB7CF93DF93C395869BE9F737
:10071000869B0BC0869B09C0869B07C0869B05C035
:10072000869B03C0869B01C08BC06F93C0917701ED
:10073000DD27C258DE4F2F9365E5869B03C02F91BE
:100740006F91E6CF0F931F934F9320E040E15F93AB
:1007500000B3047406FB27F93F9350E03BE039C037
:10076000147440642F77012F5F5F1EC0406810B380
:1007700014742F7752501FC0406400B32F77047455
:10078000D1F15F5F00C023C0406210B32F771474B3
:1007900091F15F5F00C025C004741027515012F41E
:1007A0005D5F0000115027952C3F10B3C8F61474FC
:1007B0000127015027952C3FC8F64227499300B3E3
:1007C000047410274F73115027952C3FA8F64695B7
:1007D000469510B3147479F00127015027952C3FEA
:1007E00098F66B5A60F3315000B3B0F600C010E4D5
:1007F0001ABF002719C03B503195C31BD04010E4ED
:100800001ABF0881033C09F10B34F9F020917501FE
:100810001981110F1213EDCF4A81441F093651F18E
:100820000D3211F0013E29F700937C013F915F9159
:100830004F911F910F912F916F91CAB7C6FD65CF50
:10084000DF91CF91CFBFCF91189520917C012223CA
:1008500069F310917A01112391F5343092F13093BC
:100860007A0120937601109177013BE0311B3093A0
:10087000770127C000917A0101300CF50AE54F702D
:1008800049F43091610034FD1DC000936100CEE554
:10089000D1E01CC03091690134FD14C0009369019E
:1008A000CAE6D1E013C0052710E000C0000002BB7B
:1008B0001AC0052710E0221F1DC010E021C04AE524
:1008C00002C032ED432FC4E1D0E032E011B3146432
:1008D000969A02B311BB54E420E865E320FF052794
:1008E00002BB279517951C3FF0F66695B8F7B1F750
:1008F00020FF052702BB279517951C3FD0F62795AB
:10090000179517FF052700001C3F02BBB0F6299181
:100910003A9519F70B7B10917B01110FC651D0400E
:1009200002BB11F01093750110E41ABF006411B3FB
:100930001B7B402F4B7B54E05A95F1F702BB11BB58
:1009400042BB74CFEF92FF920F931F93CF93DF932D
:10095000609186007091870077FD22C000918C0025
:1009600020918A00409188008BE898E00E94B508A9
:100970000091900020918E0040918C0060918A003F
:100980008BE898E00E94B5080091880020918600CD
:100990004091900060918E008BE898E00E94B5082D
:1009A00044E250E062E970E086E890E00E94C711FE
:1009B0000AEA10E0CDE6D0E083E0E82EF12C2D85A8
:1009C0003E8589819A81289FA001299F500D389FDB
:1009D000500D1124F80180819181840F951F80387A
:1009E000910508F059C0F801918380832F853889DB
:1009F0008B819C81289FA001299F500D389F500D0D
:100A00001124F80182819381840F951F8034910510
:100A1000A8F5F801938382830C5F1F4F2496F0E0C2
:100A2000C937DF0761F60091B0002091AE00409118
:100A3000AC006091AA008BE898E00E94B508009194
:100A4000B4002091B2004091B0006091AE008BE8FC
:100A500098E00E94B5080091AC002091AA00409156
:100A6000B4006091B2008BE898E00E94B508DF9175
:100A7000CF911F910F91FF90EF900895319521959F
:100A80003109388B2F870E94AE11B7010E94F910EF
:100A900001969C838B83C0CF3195219531093E8788
:100AA0002D870E94AE11B7010E94F91001969A831A
:100AB00089839CCF8091980196B390959F70909375
:100AC0009801089586B390E0809590958F7099274E
:100AD00090919801892B809398010895FC0186EBF1
:100AE00090E0909379018093780190819076903294
:100AF00011F080E0089581818130B1F08930C9F72B
:100B000083818330B1F78281843029F110F18850DC
:100B1000863078F788E0809394018FEF9FEF909371
:100B200096018093950108958381833011F7828126
:100B30008130A9F08330E9F68093B6009091980156
:100B400086B380958F70809398019093B70082E070
:100B50000895823071F6809394018FEF089546E2F4
:100B600050E060E771E086EB90E00E94BE1186E203
:100B70000895862F089580936D000895EF92FF9257
:100B80000F931F93CF93DF9360E080E10E942108D1
:100B900084EF90E09F938F93C1E0CF930E94610C0C
:100BA00061E081E00E9421081F92CF931F92CF93B2
:100BB0008AED90E09F938F93CF930E94610C8FEF0B
:100BC0009FEF90938700809386009093930080938B
:100BD000920090939F0080939E009093AB0080932F
:100BE000AA000AEA10E0CDE6D0E08DB79EB70A96DB
:100BF0000FB6F8949EBF0FBE8DBF83E0E82EF12C98
:100C00000E94AE118F77907897FD4CC0F8019183C8
:100C100080839A8F898F0E94AE118F73907897FD91
:100C20003CC0F801938382839C8F8B8F0E94AE110E
:100C3000B7010E94F91001969A8389830E94AE1130
:100C4000B7010E94F91001969C838B830E94AE111C
:100C500080FD20C08FEF9FEF9E878D870E94AE1191
:100C600080FD15C08FEF9FEF988B8F870C5F1F4F14
:100C70002496F0E0C937DF0719F681E080936D0014
:100C8000DF91CF911F910F91FF90EF90089581E038
:100C900090E0EACF81E090E0DFCF0197806C9F6F1A
:100CA0000196BFCF019780689F6F0196AFCFFF92EB
:100CB0000F931F93CF93DF93EC01F62E9091940145
:100CC0009430E9F19830B9F0923039F08F2DDF91FE
:100CD000CF911F910F91FF90089589818823D1F1C1
:100CE0000E94120810926D008F2DDF91CF911F91FD
:100CF0000F91FF9008958091950190919601019632
:100D0000A1F1809197019F2D8F1510F1891B809380
:100D100097010FEF090F9923C9F210E00F5F1F4FE2
:100D20000C0F1D1F89910E946407C017D107D1F7CE
:100D30008F2DDF91CF911F910F91FF9008958981A1
:100D40008ABD8F2DDF91CF911F910F91FF90089554
:100D5000982FDCCF0E9412080E94BE058F2DDF91D4
:100D6000CF911F910F91FF90089529818A8190E082
:100D7000982F8827820F911D90939601809395015B
:100D80002B812093970124962CEFF20EBC01660F65
:100D9000672F661F770B71958F770E942108B1CF5F
:100DA00080916D0081110C94A2040895DF98DE9863
:100DB000DD98DC98DB98D898D79AD69AD59AD49AA9
:100DC000D39AD09A15BA8FEF84BB0895882319F06F
:100DD000DC98DB9A0895DC9ADB9808950E94E60679
:100DE00015BA14BADE9ADF98DD9A00000000000000
:100DF0000000000000000000000083B38079E9F7E4
:100E0000DD98DE988FEF84BB0895CF93DF931F9218
:100E1000CDB7DEB769830E94EE06DF98DE98DD9AD3
:100E20008FEF84BB698165BB0000000000000000FB
:100E30000000000000000000DD980F90DF91CF91CE
:100E400008950E94EE06DF9814BADE9ADD9A00003B
:100E5000000000000000000000000000000083B35C
:100E6000DD98DE989FEF94BB0895811102C0D89A57
:100E70000895D8980895CF93DF93C9E9D1E0888386
:100E800060E480E00E9405071A8260E481E00E942D
:100E900005071C828881682F6F7360648295869530
:100EA00086958370DF91CF910C940507CF93809343
:100EB0009A01C82FC86B6C2F80E00E9405076C2F29
:100EC00081E0CF910C940507CF93DF93D82FE09169
:100ED0009901CE2FC295C695C695C3708C2F0E94DE
:100EE000EE068FEF84BBD5BBDF9ADE98DD9A00005B
:100EF0000000000000000000000000000000DD987D
:100F0000EC2FF0E0EE0FFF1FE556FE4F80818F5F64
:100F10008083809199018F5F8093990187FD03C041
:100F2000DF91CF91089580919A018F5F0E945607BB
:100F300080E0DF91CF910C943B071F93CF93DF9319
:100F4000182FE0919901CE2FC295C695C695C37012
:100F50008C2F0E94EE0615BA14BA9BB3906E9BBB01
:100F60000000000000000000000000000000000081
:100F7000D3B39BB39F719BBB111110C0EC2FF0E05A
:100F8000EE0FFF1FE556FE4F90819F5F908390917B
:100F900099019F5F9093990197FD05C08D2FDF9177
:100FA000CF911F91089580919A018F5F0E945607FB
:100FB00080E00E943B078D2FDF91CF911F91089514
:100FC000CF93DF93D0E08D2F0E94560780E00E94E0
:100FD0003B07C0E080E00E946407CF5FC038D1F7D4
:100FE000DF5FD83081F7DF91CF910895CF93C82F7D
:100FF000C06C6C2F80E00E9405076C2F81E0CF91C0
:101000000C94050780E00E94F60780E00E945607D6
:1010100080E00E943B07E9E9F1E013821282158229
:10102000148208950E94D606D89A6FE380E00E9449
:1010300005076FE381E00E9405070E94E0070C941A
:101040000208CF93C82F862F0E9456078C2FCF916E
:101050000C943B07CF93C62F0E9456078C2F880F06
:101060008C0F880FCF910C943B0708950F931F931B
:10107000CF93DF93D82FC62F162F1695169516955A
:10108000612F0E94210881E00E949D0780E00E945C
:101090009D07082F612F8D2F0E942108C77021E026
:1010A00030E0C90101C0880FCA95EAF7802B0E9481
:1010B000640780E0DF91CF911F910F910C94F607A8
:1010C0000F931F93CF93DF93D82FC62F162F16950C
:1010D00016951695612F0E94210881E00E949D07B8
:1010E00080E00E949D07082F612F8D2F0E9421080C
:1010F000C77021E030E001C0220FCA95EAF7822FC5
:10110000809580230E94640780E0DF91CF911F913A
:101110000F910C94F6070F931F93CF93DF93D82F63
:10112000C62F162F169516951695612F0E94210829
:1011300081E00E949D0780E00E949D07082F612F9B
:101140008D2F0E942108C77021E030E0C90101C045
:10115000880FCA95EAF780270E94640780E0DF9134
:10116000CF911F910F910C94F6076F927F928F92FF
:101170009F92AF92BF92CF92DF92EF92FF920F9326
:101180001F93CF93DF936C01C62FD42FB22E822EE4
:10119000912C861A9108402F50E04D1B51091814CC
:1011A00019040CF052C077247394141615060CF031
:1011B00052C06624639497FC52C057FD55C08416F4
:1011C000950654F18A01000F111F7801E818F908FB
:1011D000880C991CBC1671F06D2F8C2FF6010995A7
:1011E000F7FC03C0D60DE818F908E00EF11EC70D94
:1011F000BC12F2CF6D2F8C2FF601DF91CF911F9192
:101200000F91FF90EF90DF90CF90BF90AF909F90A5
:101210008F907F906F900994880C991C7401E41A48
:10122000F50A5A01AA0CBB1C0D1721F36D2F8C2F48
:10123000F6010995F7FC03C0C70DEA18FB08E80C96
:10124000F91CD60D0D13F2CFD5CF77247A9414164E
:1012500015060CF4AECF66246A9497FEAECF919437
:101260008194910857FFABCF519541955109A7CF74
:10127000DF92EF92FF920F931F93CF93DF93C82FCC
:10128000F62E042F122F442391F0EE24EA94E20E5E
:10129000E80ED42ED60ED62F6D2F8C2F0E94360836
:1012A0006D2F8E2D0E943608DF5FDD11F5CF1123E3
:1012B00081F08FEF8F0D080FDC2FD10F6F2D8C2F4A
:1012C0000E943608602F8C2F0E943608CF5FCD1306
:1012D000F5CFDF91CF911F910F91FF90EF90DF90AD
:1012E00008955F926F927F928F929F92AF92BF927A
:1012F000CF92DF92EF92FF920F931F93CF93DF93E2
:10130000682E762EC62EC81AE42EF12CAA24BB24F1
:10131000AE18BF08AA0CBB1C83E0A80EB11C26E0C7
:10132000822E912C00E010E016C098012E193F0982
:10133000220F331F220F331F265F3F4FA20EB31E13
:1013400081E0E81AF1080F5F1F4F84E0880E911CBE
:10135000E016F106D4F1C72DCE0D6C2FD62CD00E91
:101360008D2D0E943608D72DDE196D2F8D2D0E94F0
:1013700036086C2FD62CD01A8D2D0E9436086D2F72
:101380008D2D0E943608CC19D72CD00E6D2D8C2FA8
:101390000E943608572C501A652D8C2F0E94360853
:1013A000DC196D2D8D2F0E943608652D8D2F0E9422
:1013B0003608B7FEBACFA80CB91C0F5F1F4F84E0E8
:1013C000880E911CE016F10634F6DF91CF911F9143
:1013D0000F91FF90EF90DF90CF90BF90AF909F90D4
:1013E0008F907F906F905F9008950F931F93CF938E
:1013F000DF93082F10E000521109C801880F991FD0
:10140000880F991F080F191FE801C755DE4F0255B5
:101410001E4FFE0184910E9464072196C017D107D8
:10142000C1F780E00E94640780E0DF91CF911F91B7
:101430000F910C94F6070F931F93CF93DF9388239C
:1014400011F1C0E090E0EC2FF0E0EA56FE4FE4919D
:10145000CE0F9F5F9813F7CFD0E0FE01EA56FE4F04
:101460000491002359F0C956DE4F10E0FE0184912B
:101470000E9464071F5F21961013F8CFDF91CF9170
:101480001F910F910895E6E9F1E0C0E0D0E0E8CFC8
:10149000CF93DF93EC018881882331F021960E945D
:1014A000F50989918111FBCFDF91CF910895909338
:1014B000DD008093DC000895CF93C82F8A3039F087
:1014C000E091DC00F091DD008C2FCF910994E09148
:1014D000DC00F091DD008DE00995E091DC00F091F9
:1014E000DD008C2FCF9109940F931F93CF9300971A
:1014F000E1F0FC01C081CC23C1F08C010F5F1F4FD4
:101500000BC0E091DC00F091DD008C2F0995F80113
:10151000C1918F01CC2349F0CA3099F7E091DC00EA
:10152000F091DD008DE00995ECCFCF911F910F91E7
:101530000895CF92DF92EF92FF921F93CF93DF93A4
:101540006A01009789F1EC01C60FD71F06C001960A
:10155000FC01319720812223B1F18C179D07B9F747
:10156000C114D10409F1E12CF12C0FC021961A30DD
:1015700019F1E091DC00F091DD00812F09958FEFEA
:10158000E81AF80AEC14FD0479F018811111EECF75
:10159000E091DC00F091DD0080E209958FEFE81A20
:1015A000F80AEC14FD0489F7DF91CF911F91FF90A9
:1015B000EF90DF90CF900895E091DC00F091DD0096
:1015C0008DE00995D6CFEC01CBCF0F931F93CF932E
:1015D0000097E9F08C010F5F1F4FFC01C491C1110E
:1015E0000DC015C0E091DC00F091DD008C2F099555
:1015F000F801C4910F5F1F4FCC2349F0CA3091F717
:10160000E091DC00F091DD008DE00995EBCFCF910A
:101610001F910F910895E091DC00F091DD008DE0C5
:101620000995E091DC00F091DD008AE00994CF9308
:101630008F70E82FF0E0E757FC4FC491CA3039F0C3
:10164000E091DC00F091DD008C2FCF910994E091C6
:10165000DC00F091DD008DE00995E091DC00F09177
:10166000DD008C2FCF910994CF93C82F82958F7076
:101670000E94170B8C2FCF910C94170B1F93CF93B5
:10168000DF931F92CDB7DEB7182F892F82958F7009
:1016900099830E94170B9981892F0E94170B812F24
:1016A00082958F700E94170B812F0F90DF91CF9141
:1016B0001F910C94170BCF92DF92EF92FF926B0168
:1016C0007C01C7010E943E0BC601FF90EF90DF90A6
:1016D000CF900C943E0B2F923F924F925F926F925D
:1016E0007F928F929F92AF92BF92CF92DF92EF92B2
:1016F000FF920F931F93CF93DF93CDB7DEB7A097E1
:101700000FB6F894DEBF0FBECDBF882E662E722EA8
:1017100017012801442311F017FD89C0C201B1014E
:10172000FF24F394411101C0F12C0FEF060DE02EC0
:10173000EF1818A2992487FC9094A92CB92CA50124
:1017400094010E940D11FB01EF70FF27E757FC4F3A
:10175000E491EF8FB901CA016E012EE1C20ED11CD6
:101760001E2D11C0A50194010E940D11FB01EF7007
:10177000FF27E757FC4FE491D601EC93B901CA016A
:10178000F1E0CF1AD108115040F0611571058105C3
:10179000910541F7F6017082F3CFCE014F968E1975
:1017A0009109FF2059F0FC0157FC49C02328242847
:1017B000252809F448C08BE28293CF016620F1F01E
:1017C0007C01C02ED12C2FEFC21AD20AC80ED91E0E
:1017D00009C0E091DC00F091DD00812F0995EC1447
:1017E000FD0461F0D7011D917D011A3091F7E09160
:1017F000DC00F091DD008DE00995EBCFA0960FB6EF
:10180000F894DEBF0FBECDBFDF91CF911F910F9136
:10181000FF90EF90DF90CF90BF90AF909F908F9010
:101820007F906F905F904F903F902F900895662724
:101830007727CB016E197F09800B910B71CF8DE259
:101840008293CF01BBCF80E28293CF01B7CF90EDDF
:10185000980F81E09A3008F080E081950895482F34
:1018600080E090E05AE0FB014423B9F0249130ED90
:10187000320F3A3020F5589FF001599FF00D112496
:10188000822F90E09C0120533109C9018E0F9F1FC8
:101890006F5F7F4FFB014111E9CF208130ED320FA7
:1018A0003A3070F4589FF001599FF00D1124822FA7
:1018B000992787FD90959C0120533109E6CF089523
:1018C00008952F923F924F925F926F927F928F92E4
:1018D0009F92AF92BF92CF92DF92EF92FF920F93BF
:1018E0001F93CF93DF9300D01F92CDB7DEB7F88C54
:1018F000498C5A8C1E012BE1220E311C9F2C992001
:1019000009F456C0F2011491112309F40AC21532E8
:1019100009F040C082010F5F1F4FF80184918D32A2
:1019200009F4E6C1612C712CF8018491803309F42B
:10193000EAC18E3209F4E7C120E2822EF8018491D7
:101940008A3209F4A4C0992009F44FC080538A3028
:1019500008F4E0C06101A12CB12CF80184918E3211
:1019600009F0BEC02801FFEF4F1A5F0AF20184910F
:101970008A3209F073C2F601B2E0CB0ED11CE080CE
:10198000F1800E5F1F4F5BC0160142E0240E311C38
:10199000D6011C911A3009F454C2E091DC00F09198
:1019A000DD00812F0995EFEF4E1A5E0A9110AACF44
:1019B000D2011C91112309F4B4C1153259F78201E7
:1019C0000F5F1F4FD20111968C918D3209F47EC1A9
:1019D000612C712C803309F484C18E3209F481C1E9
:1019E00090E2892E8A3209F452C0F801808190ED8C
:1019F000980F9A3008F48EC06101A12CB12C8E3260
:101A000009F055C02801FFEF4F1A5F0AD80111965F
:101A10004C914A3209F4AFCF80ED840F8A3008F040
:101A20003EC2B201892D0E942F0C7C01F20191105F
:101A3000F6C2808180538A3008F4F6C28F01992063
:101A400009F439C0F8018491833209F452C02801A5
:101A500084918C3609F476C020E030E000E010E09C
:101A6000E491F0E0EF36F10509F47EC0E037F105CE
:101A70000CF0D3C0E336F10509F486CFE436F10566
:101A800009F467C1B59709F455C016018CCF6101FF
:101A9000F2E0CF0ED11CD101AD90BC900F5F1F4F73
:101AA00091105BCFD8018C918E3209F4ABCF8EEFC1
:101AB000E82E8FE7F82EF8014081433209F028C163
:101AC000C80101962801D20111964C914C3609F0BB
:101AD000E0C19C012F5F3F4F2C0101E010E039C0B5
:101AE0009EEFE92E9FE7F92EF8018491833209F0E9
:101AF000AECFC8010196FC0124912C3609F0A8C193
:101B00009C012F5F3F4F01E010E0F901290121E026
:101B100030E0A6CFB801892D0E942F0C5C01F8019E
:101B200091102FC2808180538A3008F42FC28F0118
:101B30006101B6CFE091DC00F091DD0085E209950E
:101B4000160131CF92012F5F3F4F00E010E091105E
:101B5000DCCFF2014181290121E030E0E42FF0E007
:101B6000EF36F10509F082CF1601232B09F09EC153
:101B7000B2E02B0E311CD6014D915C91BA0180E090
:101B800090E0E537F10509F49DC1EF36F10509F460
:101B90004DC2E837F10509F476C2C12CD12C0DED08
:101BA00010E0CA0CDB1C6114710409F0AFC17601AE
:101BB00041E0E41AF1081C141D040CF0ABC2E091E2
:101BC000DC00F091DD00882D099581E0E81AF1082C
:101BD000B0F7A1E0B0E012976D01780130E00E3D62
:101BE000130780F4E0CEE091DC00F091DD00812F5E
:101BF0000995F1E0EF1AF1082EEDE21620E0F20669
:101C000008F4C6C1F70110811A3069F7E091DC00D1
:101C1000F091DD008DE00995E6CFE537F10509F497
:101C2000A3CFE837F10509F49FCFE337F10509F0B9
:101C30002CCF1601B2E02B0E311CF6010190F08181
:101C4000E02DFA83E983309709F416C20190002051
:101C5000E9F7319729813A81E21BF30B6501CE1A2E
:101C6000DF0A6114710409F46DC1A981BA819C91E4
:101C7000992309F4B8C11E141F040CF0B4C10981E2
:101C80001A810F5F1F4FAFEFEA1AFA0A29813A81D2
:101C9000E20EF31E10C0E091DC00F091DD00892F10
:101CA0000995D8019D918D01992309F499C1AE152B
:101CB000BF0509F495C19A3071F7E091DC00F0910D
:101CC000DD008DE09B8309959B81E5CF82010E5F4E
:101CD0001F4FF201828166246394712C803309F0D6
:101CE0007CCEF80181810F5F1F4F40E3842E7ACEB6
:101CF00082010E5F1F4F66246394712CF80184915A
:101D0000803309F016CE0F5F1F4F50E3852E16CE9D
:101D100028014C3609F416CF20E030E000E010E056
:101D20001DCF80E090E00F900F900F90DF91CF914A
:101D30001F910F91FF90EF90DF90CF90BF90AF90E9
:101D40009F908F907F906F905F904F903F902F90DB
:101D500008951601232B09F0E0C0B2E02B0E311CD0
:101D6000F60160817181882777FD8095982F97FD16
:101D7000DEC0C12CD12CAEEDEA2EA0E0FA2E01C0BF
:101D8000780187010F5F1F4F2AE030E040E050E00C
:101D90000E942F11605DD7016C93B901CA016115D2
:101DA00071058105910561F7CD2829F00F5F1F4F5F
:101DB0002DE2F7012183FEEDCF2EF0E0DF2EC01AD9
:101DC000D10ACA0CDB1C6114710409F01DC1760133
:101DD00031E0E31AF1081C141D040CF09DC1E091E0
:101DE000DC00F091DD00882D099541E0E41AF1084E
:101DF000B0F7A1E0B0E012976D017801F1E0EF1AC1
:101E0000F1082EEDE21620E0F20680F4CCCDE09150
:101E1000DC00F091DD00812F0995F1E0EF1AF10867
:101E20002EEDE21620E0F20608F4C6C0F70110819C
:101E30001A3069F7E091DC00F091DD008DE0099542
:101E4000E6CFE091DC00F091DD008DE00995A5CDB5
:101E50002C0120E030E001E010E002CE90ED980F80
:101E60009A3008F4DECD833231F0F2018EEFE82EA5
:101E70008FE7F82EEDCDC20101960EEFE02E0FE7B1
:101E8000F02E911038CED20111964C914C3609F4B7
:101E900020CE2C0120E030E001E010E05FCE4332A4
:101EA00051F31EEFE12E1FE7F12E33CF44E0240E55
:101EB000311CD6016D917D918D919C91E537F10595
:101EC00009F063CEEEEDEE2EE0E0FE2EBFEFEB1A52
:101ED000FB0A2AE030E040E050E00E940D11605D16
:101EE000F70162938F01B901CA016115710581057E
:101EF000910561F76EEDC62E60E0D62ECE18DF0894
:101F0000CA0CDB1C6114710409F451CE780140E065
:101F10000E3D140708F076CE3EC0F4E02F0E311CC3
:101F2000D6016D917D918D919C9197FF22CF9095D7
:101F30008095709561957F4F8F4F9F4FCC24C394B0
:101F4000D12C19CF8601015011091C141D040CF06D
:101F5000E5C0E091DC00F091DD00882D099501508D
:101F60001109B8F781E090E002976C01E981FA81EC
:101F70009081992309F417CD1E141F040CF47FCE11
:101F800012CD849180538A3008F0D1CD3196C8CDDE
:101F9000672809F408CD8601015011091C141D049D
:101FA0000CF001CDE091DC00F091DD0080E20995BC
:101FB00001501109B8F7F7CC672809F4F4CC860171
:101FC000015011091C141D040CF0EDCCE091DC0053
:101FD000F091DD0080E2099501501109B8F7E3CCDA
:101FE000672809F4E0CC8601015011091C141D0476
:101FF0000CF0D9CCE091DC00F091DD0080E2099595
:1020000001501109B8F7CFCC7801B1E0EB1AF10813
:10201000EEEDEE16E0E0FE0608F008CFD0CF84919A
:1020200080538A3008F00ACD319601CDEEEDF0E014
:102030009801DC01CB0101C0F7017F014FEFE41AE9
:10204000F40A482F4770405D408353E0B695A7954A
:10205000979587955A95D1F70097A105B10561F736
:102060002115310509F046C04EEDC42E40E0D42EB6
:10207000CE18DF088F0195CDE5E0F0E026E630E0F0
:102080003A832983EBCD2EEDE22E20E0F22EF701EC
:10209000AB01BC01D8010FC0805D8083319614E094
:1020A00076956795579547951A95D1F7411551053E
:1020B0006105710551F0CA018F7099278A30910529
:1020C0005CF3895A80833196EACF7F01109741F003
:1020D00028E7D7012C9332E0E30EF11C80E38183E3
:1020E0006EEDC62E60E0D62ECE18DF0887010150B7
:1020F000110957CD7F0182E0E80EF11C80E3818356
:102100003EEDC32E30E0D32ECE18DF088F010F5FD7
:102110001F4F47CD670161CD67016FCE680126CFA4
:102120002EE088E190E00FB6F894A89581BD0FBE2F
:1021300021BD82B38B7B82BB81B3846481BB80E48D
:102140009CE90197F1F781B38B7B81BB8C9A9498C2
:1021500087B3807F87BB88B38F6088BB85E083BFF0
:102160008D9A8FB589688FBD8EB581608EBD80E2F6
:102170008ABD0E945B0380E090E00E94D91181310A
:10218000974471F0E5E0F1E0649180E090E00E9416
:10219000DF11E6E0F1E0649181E090E00E94DF1160
:1021A0000E94120885EF99E00E94570A0E94BE051E
:1021B000789480916D00811119C0A8950E940F023A
:1021C00086B390E0809590958F70992790919801B3
:1021D000892B809398018091000090910100892BB8
:1021E00041F386B38F708A3021F7FFCF0E94A2049B
:1021F000E4CF97FB072E16F4009407D077FD09D0A3
:102200000E944E1107FC05D03EF4909581959F4F9A
:102210000895709561957F4F0895A1E21A2EAA1B2B
:10222000BB1BFD010DC0AA1FBB1FEE1FFF1FA21786
:10223000B307E407F50720F0A21BB30BE40BF50B83
:10224000661F771F881F991F1A9469F7609570950C
:10225000809590959B01AC01BD01CF010895052E9D
:1022600097FB1EF400940E94461157FD07D00E9470
:102270000D1107FC03D04EF40C9446115095409577
:10228000309521953F4F4F4F5F4F08959095809522
:10229000709561957F4F8F4F9F4F0895AA1BBB1B71
:1022A00051E107C0AA1FBB1FA617B70710F0A61B56
:1022B000B70B881F991F5A95A9F780959095BC0177
:1022C000CD0108958F929F92AF92BF92CF92DF92ED
:1022D000EF92FF92CF93DF93EC01688179818A813D
:1022E0009B81611571058105910521F464E279ED09
:1022F0008BE597E02DE133EF41E050E00E942F1194
:1023000049015A019B01AC01A7EAB1E40E94051200
:102310006B017C01ACEEB4EFA50194010E94131295
:10232000DC01CB018C0D9D1DAE1DBF1DB7FF03C091
:102330000197A109B04888839983AA83BB839F77BB
:10234000DF91CF91FF90EF90DF90CF90BF90AF9053
:102350009F908F9008950E946211089582E690E008
:102360000E9462110895A0E0B0E080936200909313
:102370006300A0936400B09365000895FB01DC0145
:1023800002C005900D9241505040D8F7089568174B
:10239000790768F4FB01DC01E40FF51FA40FB51FFA
:1023A00002C002900E9241505040D8F708950C940C
:1023B000EC11A8E1B0E042E050E00C94F711262FB8
:1023C000E199FECF9FBB8EBB2DBB0FB6F894E29A6E
:1023D000E19A0FBE01960895FB01DC0102C0019055
:1023E0000D9241505040D8F70895DC01CB01FC011B
:1023F000E199FECF06C0FFBBEEBBE09A31960DB26D
:102400000D9241505040B8F708950E941812A59FB0
:10241000900DB49F900DA49F800D911D11240895DF
:10242000B7FF0C9405120E940512821B930B0895AE
:10243000A29FB001B39FC001A39F700D811D112405
:10244000911DB29F700D811D1124911D0895F89466
:02245000FFCFBC
:0C245200FF5A01000000286E696C290090
:00000001FF
